:020000040800F2
:1000000060060020B1010008B10500086305000882
:10001000AD05000863020008D507000800000000D5
:10002000000000000000000000000000850600083D
:100030006702000800000000610600087107000860
:10004000CB010008CB010008CB010008CB01000860
:10005000CB010008CB01000869020008CB010008B1
:10006000CB010008CB010008CB010008CB01000840
:10007000CB010008CB010008CB010008CB01000830
:10008000CB010008CB010008CB010008CB01000820
:10009000CB010008CB010008CB010008CB01000810
:1000A000CB010008CB010008CB010008CB01000800
:1000B000CB010008CB010008CB010008CB010008F0
:1000C000CB010008CB010008CB010008CB010008E0
:1000D000CB010008CB010008CB010008CB010008D0
:1000E0008D020008CB010008CB010008CB010008FD
:1000F000CB010008CB010008CB010008CB010008B0
:10010000CB010008CB010008CB010008CB0100089F
:10011000CB010008CB010008CB010008CB0100088F
:10012000CB010008CB010008CB010008CB0100087F
:1001300000F002F800F02CF80AA090E8000C8244CD
:100140008344AAF10107DA4501D100F021F8AFF2AA
:10015000090EBAE80F0013F0010F18BFFB1A43F0A5
:1001600001031847800600009006000000230024C9
:1001700000250026103A28BF78C1FBD8520728BFB7
:1001800030C148BF0B6070471FB51FBD10B510BD13
:1001900000F031F81146FFF7F7FF00F01DFB00F00B
:1001A0004FF803B4FFF7F2FF03BC00F053F8000070
:1001B0000948804709480047FEE7FEE7FEE7FEE7FB
:1001C000FEE7FEE7FEE7FEE7FEE7FEE70448054937
:1001D000054A064B7047000075070008310100080A
:1001E0006000002060060020600200206002002005
:1001F000704770477047754600F028F8AE46050016
:100200006946534620F00700854618B020B5FFF731
:10021000DDFFBDE820404FF000064FF000074FF033
:1002200000084FF0000B21F00701AC46ACE8C00914
:10023000ACE8C009ACE8C009ACE8C0098D4670471D
:100240000446AFF300802046FFF7ABFF004870473D
:100250000000002001491820ABBEFEE72600020086
:10026000704700BFFEE7704710B5012000F028F886
:1002700028B10548C06880F004000349C860012027
:1002800000F018F810BD00000010014010B54FF448
:10029000005000F015F828B10548C06880F008004B
:1002A0000349C8604FF4005000F004F810BD00008E
:1002B000001001400149086070470000140401402B
:1002C000014600200022074B1B6803EA0102054B90
:1002D00014331B680B4013B10AB1012000E0002069
:1002E0007047000000040140002123498279002A60
:1002F0003AD00A46126803689A430B461A600A1DF0
:10030000126803689A430B1D1A60027911440A6847
:1003100003681A430A60184A0832126803689A434D
:10032000154B08331A601A1D126803689A43124B62
:100330000C331A604279102A0ED11A1F1268036812
:100340001A430D4B08331A601A1D126803681A43CA
:10035000094B0C331A600DE00749427911440A68D1
:1003600003681A430A6005E0027911440A680368C9
:100370009A430A6070470000000401400EB500F087
:1003800018F90121142000F06DF90120ADF80800E2
:1003900004208DF80B0002A91A4800F057F84FF41A
:1003A0000050ADF8080002A9174800F04FF80121ED
:1003B000084600F057F90021084600F027F8012010
:1003C000009000208DF8040008208DF80500012021
:1003D0008DF806006846FFF787FF0D21022000F028
:1003E00015F84FF40050009000208DF804000C2008
:1003F0008DF8050001208DF806006846FFF774FFB0
:100400000EBD0000000801400010014030B5002280
:100410008B071C0F0F2303FA04F20B4B8C1053F8BD
:1004200024309343084C8D1044F8253023468C101B
:1004300053F824308C07240F00FA04F42343024CB1
:100440008D1044F8253030BD080001402DE9F04101
:10045000024600250026002000230024002791F8F2
:1004600003C00CF00F0591F803C00CF0100CBCF1A8
:10047000000F03D091F802C04CEA050591F800C0C6
:10048000BCF1000F31D0146800202BE04FF0010CBC
:100490000CFA00F3B1F800C00CEA03069E4220D12A
:1004A00083004FF00F0C0CFA03F7BC4305FA03FC72
:1004B0004CEA040491F803C0BCF1280F06D14FF0B8
:1004C000010C0CFA00FCC2F814C00AE091F803C059
:1004D000BCF1480F05D14FF0010C0CFA00FCC2F83A
:1004E00010C0401C0828D1D31460B1F800C0BCF182
:1004F000FF0F34DD546800202EE000F1080C4FF0AF
:10050000010808FA0CF3B1F800C00CEA03069E4299
:1005100021D183004FF00F0C0CFA03F7BC4305FA0E
:1005200003FC4CEA040491F803C0BCF1280F05D188
:1005300000F1080C08FA0CF8C2F8148091F803C016
:10054000BCF1480F07D100F1080C4FF0010808FA80
:100550000CF8C2F81080401C0828CED35460BDE8C7
:10056000F08100BFFEE7000008B50121102000F077
:1005700079F80420ADF8000010208DF80300012068
:100580008DF8020069460848FFF760FF0820ADF8C3
:10059000000010208DF8030001208DF8020069464C
:1005A0000148FFF753FF08BD0010014000BFFEE700
:1005B000704708B506208DF8000001208DF8010075
:1005C00000208DF8020001208DF80300684600F03D
:1005D0000FF828208DF8000001208DF801008DF81B
:1005E00002008DF80300684600F002F808BD000024
:1005F00070B5002100230F22C47804B3154C246881
:1006000004F4E064C4F5E064210AC1F10403CA40C3
:10061000447804FA03F184781440214309010E4C14
:100620000678A155047804F01F050124AC40057834
:100630006D11AD0005F1E025C5F8004109E0047831
:1006400004F01F050124AC40044D0678761145F8EE
:10065000264070BD0CED00E000E400E080E100E029
:100660007047000029B1064A92690243044B9A611F
:1006700004E0034A92698243014B9A61704700008B
:1006800000100240704710B500F002F810BD0000E5
:100690000CB50020019000903348006840F4803091
:1006A0003149086000BF3048006800F40030009015
:1006B0000198401C0190009818B90198B0F5A06FFE
:1006C000F1D12948006800F4003010B101200090F9
:1006D00001E0002000900098012843D123480068E1
:1006E00040F01000214908600846006820F003002F
:1006F00008600846006840F0020008601A48406838
:10070000194948600846406848600846406840F417
:10071000806048600846406820F47C1048600846C5
:10072000406840F4E81048600846006840F0807077
:10073000086000BF0C48006800F000700028F9D085
:100740000948406820F003000749486008464068AF
:1007500040F00200486000BF0348406800F00C0011
:100760000828F9D10CBD0000001002400020024012
:100770007047000010B51348006840F001001149AF
:10078000086008464068104908400E49486008461D
:1007900000680E4908400B4908600846006820F4CC
:1007A000802008600846406820F4FE0048604FF44E
:1007B0001F008860FFF767FF4FF000600449086082
:1007C00010BD0000001002400000FFF8FFFFF6FE21
:1007D00008ED00E000BFFEE7FFF7C6FEFFF7CEFD25
:1007E00000BFFEE7F40700080000002060060000DC
:0407F0006C01000890
:0400000508000131BD
:00000001FF
