:020000040800F2
:1000000018040020450100084103000839030008D6
:100010003D0300088D0100080F08000800000000E3
:10002000000000000000000000000000E5040008DF
:100030002102000800000000ED0300085D01000837
:100040005F0100085F0100085F0100085F01000810
:100050005F0100085F0100085F0100085F01000800
:100060005F0100085F0100085F0100085F010008F0
:100070005F0100085F0100085F0100085F010008E0
:100080005F0100085F0100085F0100085F010008D0
:100090005F0100085F0100085F0100085F010008C0
:1000A0005F0100085F0100085F0100085F010008B0
:1000B0005F0100085F0100085F0100085F010008A0
:1000C0005F0100085F0100085F0100085F01000890
:1000D0005F010008310600085F0100085F010008A9
:1000E0005F0100085F0100085F0100085F01000870
:1000F0005F0100085F0100085F0100085F01000860
:100100005F0100085F0100085F0100085F0100084F
:100110005F0100085F0100085F0100085F0100083F
:100120005F0100085F0100085F0100085F0100082F
:10013000DFF80CD000F018F800480047D10800089C
:10014000180400200648804706480047FEE7FEE7FF
:10015000FEE7FEE7FEE7FEE7FEE7FEE7FEE7FEE777
:10016000D105000831010008064C074D06E0E068A3
:1001700040F0010394E8070098471034AC42F6D3EE
:10018000FFF7DAFF000900082009000800BFFEE7BA
:1001900000B585B00121042000F02AF94FF4007069
:1001A000ADF8100018208DF8130003208DF8120010
:1001B00004A9194800F035F84FF48060ADF810003C
:1001C00004208DF8130004A9134800F02AF8012137
:1001D000880300F00DF94FF4E13000900020ADF8F5
:1001E0000400ADF80600ADF80800ADF80C000C20D6
:1001F000ADF80A006946094800F094FA00F0A1F849
:10020000012240F22551054800F067FA0121034818
:1002100000F020FA05B000BD0008014000380140A0
:1002200070472DE9F04102460025002600200023FA
:100230000024002791F803C00CF00F0591F803C0CB
:100240000CF0100CBCF1000F03D091F802C04CEA86
:10025000050591F800C0BCF1000F31D014680020F2
:100260002BE04FF0010C0CFA00F3B1F800C00CEADF
:1002700003069E4220D183004FF00F0C0CFA03F7C7
:10028000BC4305FA03FC4CEA040491F803C0BCF13A
:10029000280F06D14FF0010C0CFA00FCC2F814C074
:1002A0000AE091F803C0BCF1480F05D14FF0010CF2
:1002B0000CFA00FCC2F810C0401C0828D1D314600E
:1002C000B1F800C0BCF1FF0F34DD546800202EE00F
:1002D00000F1080C4FF0010808FA0CF3B1F800C067
:1002E0000CEA03069E4221D183004FF00F0C0CFA5A
:1002F00003F7BC4305FA03FC4CEA040491F803C07D
:10030000BCF1280F05D100F1080C08FA0CF8C2F86E
:10031000148091F803C0BCF1480F07D100F1080C1C
:100320004FF0010808FA0CF8C2F81080401C0828A9
:10033000CED35460BDE8F08100BFFEE700BFFEE70A
:10034000704708B54FF4A06000F046F825208DF8FE
:10035000000001208DF801008DF802008DF80300E7
:10036000684600F001F808BD70B5002100230F2297
:10037000C47804B3154C246804F4E064C4F5E06464
:10038000210AC1F10403CA40447804FA03F18478D5
:100390001440214309010E4C0678A155047804F05D
:1003A0001F050124AC4005786D11AD0005F1E02575
:1003B000C5F8004109E0047804F01F050124AC40B1
:1003C000044D0678761145F8264070BD0CED00E02E
:1003D00000E400E080E100E002490143024A1160CC
:1003E000704700000000FA050CED00E070470000C7
:1003F00029B1064A92690243044B9A6104E0034A18
:1004000092698243014B9A617047000000100240DC
:1004100030B500210022002400232D4D6D6805F029
:100420000C0121B1042905D0082923D105E0294D6B
:10043000056022E0274D05601FE0254D6D6805F43D
:100440007012234D6D6805F48034022505EB92424D
:100450001CB9214D554305600BE01D4D6D6805F439
:1004600000351DB11C4D5543056002E0194D554343
:10047000056002E0174D056000BF00BF144D6D68B8
:1004800005F0F0010909154D6B5C0568DD4045601C
:100490000F4D6D6805F4E061090A104D6B5C45680D
:1004A000DD4085600A4D6D6805F46051C90A0B4D49
:1004B0006B5C4568DD40C560054D6D6805F44041E5
:1004C000890B074D6B5CC568B5FBF3F5056130BD65
:1004D0000010024000127A0000093D0000000020D8
:1004E00010000020704710B500F002F810BD0000A9
:1004F0000CB50020019000903348006840F4803033
:100500003149086000BF3048006800F400300090B6
:100510000198401C0190009818B90198B0F5A06F9F
:10052000F1D12948006800F4003010B1012000909A
:1005300001E0002000900098012843D12348006882
:1005400040F01000214908600846006820F00300D0
:1005500008600846006840F0020008601A484068D9
:10056000194948600846406848600846406840F4B9
:10057000806048600846406820F47C104860084667
:10058000406840F4E81048600846006840F0807019
:10059000086000BF0C48006800F000700028F9D027
:1005A0000948406820F00300074948600846406851
:1005B00040F00200486000BF0348406800F00C00B3
:1005C0000828F9D10CBD00000010024000200240B4
:1005D00010B51348006840F0010011490860084652
:1005E0004068104908400E494860084600680E49B6
:1005F00008400B4908600846006820F48020086025
:100600000846406820F4FE0048604FF41F008860F0
:10061000FFF769FF4FF000600449086010BD00005B
:10062000001002400000FFF8FFFFF6FE08ED00E0BA
:1006300010B540F22551064800F025F838B10448BD
:1006400000F0DCF8C4B22146014800F0DCF810BD2F
:100650000038014021B1828942F40052828104E0D5
:1006600082894DF6FF731A4082817047024600204E
:10067000B1F5007F00D100BF13880B400BB1012002
:1006800000E00020704770B50246002400230025DA
:10069000002040F66A16B14200D100BFC1F34215F6
:1006A00001F01F03012606FA03F3012D02D19689FA
:1006B000334006E0022D02D1168A334001E0968ACB
:1006C00033400C12012606FA04F41688344013B1A4
:1006D0000CB1012000E0002070BDF0B503460024FD
:1006E00000260025002040F66A17B94200D100BF5D
:1006F0001846C1F3421401F01F06012707FA06F558
:10070000012C01D10C3004E0022C01D1103000E0AA
:1007100014301AB107682F43076002E00768AF433F
:100720000760F0BD2DE9F04786B005460E4600246F
:10073000A24600BFA1460027B08900B100BF2F46E6
:100740002C8A4CF6FF700440F08804432C82AC895C
:100750004EF6F3100440B08831890843718908438C
:100760000443AC81AC8A4FF6FF400440B089044397
:10077000AC8201A8FFF74CFE1F48874202D1DDF88A
:1007800010A001E0DDF80CA0A88900F4004040B101
:100790000AEBCA0000EB0A1031684900B0FBF1F81F
:1007A00007E00AEBCA0000EB0A1031688900B0FBD1
:1007B000F1F86420B8FBF0F004012009642101FB8A
:1007C0001089A88900F4004040B1322000EBC90034
:1007D000B0FBF1F000F00700044308E0322000EB2A
:1007E00009106421B0FBF1F000F00F0004432C81EC
:1007F00006B0BDE8F0870000003801400146888857
:10080000C0F308007047C1F308028280704700BF40
:10081000FEE770B504460D4629462046FFF7F3FF74
:1008200000BF80212046FFF721FF0028F9D070BDCE
:1008300070B506460C46002500BF615D3046FFF7E7
:10084000E8FF6D1C605D0028F7D100BF40213046F5
:10085000FFF70CFF0028F9D070BD0000014A0249E3
:1008600000F013B8AD0800081400002002E008C82A
:10087000121F08C1002AFAD170477047002001E01A
:1008800001C1121F002AFBD170472DE9F041164625
:100890000F460446002503E03946B047641C6D1C32
:1008A00020780028F8D12846BDE8F08170B50446CC
:1008B0000D46E1B20548FFF7A6FF00BF80210348BF
:1008C000FFF7D4FE0028F9D0204670BD0038014063
:1008D000FFF75EFC04A10748FFF7AAFF06A0FFF799
:1008E000BDFF00BFFEE70000C4E3BAC3CAC0BDE756
:1008F0000A00000000380140C9B5B1C60A00000076
:100900002009000800000020180000006C08000802
:100910003809000818000020000400007C080008C6
:100920000000000001020304010203040607080995
:080930000204060800000000AB
:0400000508000131BD
:00000001FF
