:020000040800F2
:1000000060060020B10100082D04000891030008DB
:100010002904000863020008A10500080000000090
:100020000000000000000000000000005104000873
:1000300067020008000000002F0400083D050008CA
:10004000CB010008CB010008CB010008CB01000860
:10005000CB010008CB010008CB010008CB01000850
:10006000CB010008CB010008CB010008CB01000840
:10007000CB010008CB010008CB010008CB01000830
:10008000CB010008CB010008CB010008CB01000820
:10009000CB010008CB010008CB010008CB01000810
:1000A000CB010008CB010008CB010008CB01000800
:1000B000CB010008CB010008CB010008CB010008F0
:1000C000CB010008CB010008CB010008CB010008E0
:1000D000CB010008CB010008CB010008CB010008D0
:1000E000CB010008CB010008CB010008CB010008C0
:1000F000CB010008CB010008CB010008CB010008B0
:10010000CB010008CB010008CB010008CB0100089F
:10011000CB010008CB010008CB010008CB0100088F
:10012000CB010008CB010008CB010008CB0100087F
:1001300000F002F800F02CF80AA090E8000C8244CD
:100140008344AAF10107DA4501D100F021F8AFF2AA
:10015000090EBAE80F0013F0010F18BFFB1A43F0A5
:1001600001031847D0040000E0040000002300242D
:1001700000250026103A28BF78C1FBD8520728BFB7
:1001800030C148BF0B6070471FB51FBD10B510BD13
:1001900000F031F81146FFF7F7FF00F009FA00F020
:1001A0004FF803B4FFF7F2FF03BC00F053F8000070
:1001B0000948804709480047FEE7FEE7FEE7FEE7FB
:1001C000FEE7FEE7FEE7FEE7FEE7FEE70448054937
:1001D000054A064B70470000410500083101000840
:1001E0006000002060060020600200206002002005
:1001F000704770477047754600F028F8AE46050016
:100200006946534620F00700854618B020B5FFF731
:10021000DDFFBDE820404FF000064FF000074FF033
:1002200000084FF0000B21F00701AC46ACE8C00914
:10023000ACE8C009ACE8C009ACE8C0098D4670471D
:100240000446AFF300802046FFF7ABFF004870473D
:100250000000002001491820ABBEFEE72600020086
:10026000704700BFFEE770472DE9F04102460025C8
:100270000026002000230024002791F803C00CF082
:100280000F0591F803C00CF0100CBCF1000F03D067
:1002900091F802C04CEA050591F800C0BCF1000FCE
:1002A00031D0146800202BE04FF0010C0CFA00F361
:1002B000B1F800C00CEA03069E4220D183004FF043
:1002C0000F0C0CFA03F7BC4305FA03FC4CEA0404D8
:1002D00091F803C0BCF1280F06D14FF0010C0CFAC5
:1002E00000FCC2F814C00AE091F803C0BCF1480F4A
:1002F00005D14FF0010C0CFA00FCC2F810C0401CF4
:100300000828D1D31460B1F800C0BCF1FF0F34DD70
:10031000546800202EE000F1080C4FF0010808FAA4
:100320000CF3B1F800C00CEA03069E4221D1830011
:100330004FF00F0C0CFA03F7BC4305FA03FC4CEA30
:10034000040491F803C0BCF1280F05D100F1080C9A
:1003500008FA0CF8C2F8148091F803C0BCF1480FF9
:1003600007D100F1080C4FF0010808FA0CF8C2F8A8
:100370001080401C0828CED35460BDE8F0810246AE
:10038000002093680B400BB1012000E00020704773
:1003900000BFFEE708B50121142000F049F8012054
:1003A000ADF8000004208DF8030069460548FFF70A
:1003B0005BFF4FF40050ADF8000069460248FFF7BC
:1003C00053FF08BD000801400010014070B504460D
:1003D0000D4629462046FFF7D2FF012800D170BD07
:1003E0000020FCE708B50121102000F021F80420CE
:1003F000ADF8000010208DF8030001208DF80200F8
:1004000069460848FFF730FF0820ADF800001020CB
:100410008DF8030001208DF8020069460148FFF7BE
:1004200023FF08BD0010014000BFFEE77047704782
:1004300029B1064A92690243044B9A6104E0034AD7
:1004400092698243014B9A6170470000001002409C
:10045000704710B500F002F810BD00000CB5002088
:10046000019000903348006840F4803031490860C2
:1004700000BF3048006800F4003000900198401C34
:100480000190009818B90198B0F5A06FF1D12948F2
:10049000006800F4003010B10120009001E000205D
:1004A00000900098012843D12348006840F01000D4
:1004B000214908600846006820F0030008600846EB
:1004C000006840F0020008601A4840681949486016
:1004D0000846406848600846406840F480604860CC
:1004E0000846406820F47C1048600846406840F4A4
:1004F000E81048600846006840F08070086000BF5F
:100500000C48006800F000700028F9D009484068E5
:1005100020F00300074948600846406840F00200A8
:10052000486000BF0348406800F00C000828F9D17B
:100530000CBD000000100240002002407047000087
:1005400010B51348006840F00100114908600846E2
:100550004068104908400E494860084600680E4946
:1005600008400B4908600846006820F480200860B5
:100570000846406820F4FE0048604FF41F00886081
:10058000FFF767FF4FF000600449086010BD0000EE
:10059000001002400000FFF8FFFFF6FE08ED00E04B
:1005A00000BFFEE700BF0100A0F10100FBD17047D2
:1005B000FFF718FFFFF7EEFE1B48C06880F004004D
:1005C0001949C8600846C06880F00800C8602AE081
:1005D00001211648FFF7FAFE01280ED11248C06823
:1005E00080F004001049C8601148FFF7DBFF0E4897
:1005F000C06880F004000C49C8604FF400510A48FC
:10060000FFF7E4FE01280ED10748C06880F008001B
:100610000549C8600648FFF7C5FF0348C06880F079
:1006200008000149C860D3E70010014000080140FC
:10063000FFFF0F00440600080000002060060000D5
:040640006C01000841
:0400000508000131BD
:00000001FF
