:020000040800F2
:1000000068060020CD010008DD0300089B030008FE
:10001000D90300087F020008E50500080000000081
:1000200000000000000000000000000001040008C3
:100030008302000800000000DF03000875050008C7
:10004000E7010008E7010008E7010008E7010008F0
:10005000E7010008E7010008E7010008E7010008E0
:10006000E7010008E7010008E7010008E7010008D0
:10007000E7010008E7010008E7010008E7010008C0
:10008000E7010008E7010008E7010008E7010008B0
:10009000E7010008E7010008E7010008E7010008A0
:1000A000E7010008E7010008E7010008E701000890
:1000B000E7010008E7010008E7010008E701000880
:1000C000E7010008E7010008E7010008E701000870
:1000D000E7010008E7010008E7010008E701000860
:1000E000E7010008E7010008E7010008E701000850
:1000F000E7010008E7010008E7010008E701000840
:10010000E7010008E7010008E7010008E70100082F
:10011000E7010008E7010008E7010008E70100081F
:10012000E7010008E7010008E7010008E70100080F
:1001300000F002F800F03AF80AA090E8000C8244BF
:100140008344AAF10107DA4501D100F02FF8AFF29C
:10015000090EBAE80F0013F0010F18BFFB1A43F0A5
:1001600001031847B8040000D8040000103A24BF67
:1001700078C878C1FAD8520724BF30C830C144BF0C
:1001800004680C607047000000230024002500264E
:10019000103A28BF78C1FBD8520728BF30C148BFEA
:1001A0000B6070471FB51FBD10B510BD00F031F8D2
:1001B0001146FFF7F7FF00F017FA00F04FF803B40D
:1001C000FFF7F2FF03BC00F053F800000948804736
:1001D00009480047FEE7FEE7FEE7FEE7FEE7FEE729
:1001E000FEE7FEE7FEE7FEE704480549054A064B41
:1001F00070470000850500083101000868000020F4
:1002000068060020680200206802002070477047DE
:100210007047754600F028F8AE460500694653461B
:1002200020F00700854618B020B5FFF7DDFFBDE8D8
:1002300020404FF000064FF000074FF000084FF04D
:10024000000B21F00701AC46ACE8C009ACE8C009DE
:10025000ACE8C009ACE8C0098D4670470446AFF36E
:1002600000802046FFF7ABFF0048704704000020E5
:1002700001491820ABBEFEE726000200704700BF10
:10028000FEE770472DE9F0410246002500260020D8
:1002900000230024002791F803C00CF00F0591F80B
:1002A00003C00CF0100CBCF1000F03D091F802C099
:1002B0004CEA050591F800C0BCF1000F31D014687C
:1002C00000202BE04FF0010C0CFA00F3B1F800C055
:1002D0000CEA03069E4220D183004FF00F0C0CFA6B
:1002E00003F7BC4305FA03FC4CEA040491F803C08D
:1002F000BCF1280F06D14FF0010C0CFA00FCC2F83B
:1003000014C00AE091F803C0BCF1480F05D14FF0CA
:10031000010C0CFA00FCC2F810C0401C0828D1D314
:100320001460B1F800C0BCF1FF0F34DD5468002048
:100330002EE000F1080C4FF0010808FA0CF3B1F8B8
:1003400000C00CEA03069E4221D183004FF00F0C3F
:100350000CFA03F7BC4305FA03FC4CEA040491F8D9
:1003600003C0BCF1280F05D100F1080C08FA0CF805
:10037000C2F8148091F803C0BCF1480F07D100F116
:10038000080C4FF0010808FA0CF8C2F81080401C65
:100390000828CED35460BDE8F08100BFFEE700001E
:1003A00008B50121102000F01BF80420ADF8000072
:1003B00010208DF8030001208DF8020069460548E1
:1003C000FFF760FF0820ADF8000069460148FFF71D
:1003D00059FF08BD0010014000BFFEE7704770479D
:1003E00029B1064A92690243044B9A6104E0034A28
:1003F00092698243014B9A617047000000100240ED
:10040000704710B500F002F810BD00000CB50020D8
:10041000019000903348006840F480303149086012
:1004200000BF3048006800F4003000900198401C84
:100430000190009818B90198B0F5A06FF1D1294842
:10044000006800F4003010B10120009001E00020AD
:1004500000900098012843D12348006840F0100024
:10046000214908600846006820F00300086008463B
:10047000006840F0020008601A4840681949486066
:100480000846406848600846406840F4806048601C
:100490000846406820F47C1048600846406840F4F4
:1004A000E81048600846006840F08070086000BFAF
:1004B0000C48006800F000700028F9D00948406836
:1004C00020F00300074948600846406840F00200F9
:1004D000486000BF0348406800F00C000828F9D1CC
:1004E0000CBD0000001002400020024030B5014663
:1004F000B1F1807F01D3012030BD21F07F40401E4B
:100500004FF0E022506150170F22002807DA13073E
:100510001D0E094B00F00F04241F1D5503E01307A7
:100520001C0E064B1C5400BF00204FF0E0229061CF
:10053000072010610020DFE718ED00E000E400E094
:1005400010B50446094804600948FFF7CFFF00BF13
:10055000064800680028FBD14FF0E020006920F039
:1005600001004FF0E021086110BD000000000020F4
:100570004019010002480068401E014908607047A8
:100580000000002010B51348006840F00100114938
:10059000086008464068104908400E49486008460F
:1005A00000680E4908400B4908600846006820F4BE
:1005B000802008600846406820F4FE0048604FF440
:1005C0001F008860FFF71DFF4FF0006004490860BE
:1005D00010BD0000001002400000FFF8FFFFF6FE13
:1005E00008ED00E000BFFEE7FFF7DAFE13E00A487F
:1005F000C06880F004000849C8604FF4FA70FFF743
:100600009FFF0548C06880F008000349C8604FF4A8
:10061000FA70FFF795FFEAE7001001403C0600087A
:1006200000000020040000006C01000840060008E3
:10063000040000206406000088010008000000009B
:0400000508000131BD
:00000001FF
