:020000040800F2
:100000002004002045010008730A00086D04000860
:100010006F0A00082F020008D10D00080000000040
:100020000000000000000000000000006D0B000850
:10003000B502000800000000750A0008590C00080D
:100040005F0100085F0100085F0100085F01000810
:100050005F0100085F0100085F0100085F01000800
:100060005F0100085F0100085F0100085F010008F0
:100070005F0100085F0100085F0100085F010008E0
:100080005F0100085F0100085F0100085F010008D0
:100090005F0100085F0100085F0100085F010008C0
:1000A0005F0100085F0100085F0100085F010008B0
:1000B0005F0100085F0100085F0100085F010008A0
:1000C0005F0100085F0100085F0100085F01000890
:1000D0005F0100085F0100085F0100085F01000880
:1000E0005F0100085F0100085F0100085F01000870
:1000F0005F0100085F0100085F0100085F01000860
:100100005F0100085F0100085F0100085F0100084F
:100110005F0100085F0100085F0100085F0100083F
:100120005F0100085F0100085F0100085F0100082F
:10013000DFF80CD000F04AF800480047F91000083A
:10014000200400200648804706480047FEE7FEE7F7
:10015000FEE7FEE7FEE7FEE7FEE7FEE7FEE7FEE777
:100160005D0C0008310100082DE9F05F0546002014
:1001700092469B4688460646814640241BE0284618
:1001800041464746224600F042F853465A46C01AB6
:10019000914110D311461846224600F029F82D1A35
:1001A00067EB01084F4622460120002100F020F8AD
:1001B00017EB00094E41201EA4F10104DFDC484684
:1001C00031462A464346BDE8F09F0000064C074DE5
:1001D00006E0E06840F0010394E807009847103417
:1001E000AC42F6D3FFF7A8FF8C110008AC11000851
:1001F000202A04DB203A00FA02F1002070479140E7
:10020000C2F1200320FA03F3194390407047202ADB
:1002100004DB203A21FA02F00021704721FA02F3B0
:10022000D040C2F12002914008431946704700BFF8
:10023000FEE7000000B585B00121042000F01CFCA1
:100240004FF40070ADF8100018208DF81300032053
:100250008DF8120004A9154800F02DF84FF48060C5
:10026000ADF8100004208DF8130004A90F4800F029
:1002700022F80121880300F0FFFB4FF4E1300090E9
:100280000020ADF80400ADF80600ADF80800ADF8A8
:100290000C000C20ADF80A006946054800F028FD66
:1002A0000121034800F00AFD05B000BD000801402F
:1002B0000038014070472DE9F04102460025002634
:1002C000002000230024002791F803C00CF00F0544
:1002D00091F803C00CF0100CBCF1000F03D091F8A2
:1002E00002C04CEA050591F800C0BCF1000F31D006
:1002F000146800202BE04FF0010C0CFA00F3B1F869
:1003000000C00CEA03069E4220D183004FF00F0C80
:100310000CFA03F7BC4305FA03FC4CEA040491F819
:1003200003C0BCF1280F06D14FF0010C0CFA00FC01
:10033000C2F814C00AE091F803C0BCF1480F05D11F
:100340004FF0010C0CFA00FCC2F810C0401C082849
:10035000D1D31460B1F800C0BCF1FF0F34DD546894
:1003600000202EE000F1080C4FF0010808FA0CF311
:10037000B1F800C00CEA03069E4221D183004FF081
:100380000F0C0CFA03F7BC4305FA03FC4CEA040417
:1003900091F803C0BCF1280F05D100F1080C08FA50
:1003A0000CF8C2F8148091F803C0BCF1480F07D1D3
:1003B00000F1080C4FF0010808FA0CF8C2F81080A0
:1003C000401C0828CED35460BDE8F081F0B50A4641
:1003D000002300240021002500F00046B6F1004F64
:1003E00002D11D4EF16901E01B4E7168C0F3034557
:1003F00083B200F44016B6F5401F08D121F07061B9
:10040000154E766826F07066134F7E6012E000F499
:100410008016B6F5801F06D1032606FA05F4A1431F
:1004200041F0706106E0460D360103FA06F6B1436D
:1004300041F0706122B1460D360103FA06F63143F0
:1004400000F00046B6F1004F02D1034EF16101E029
:10045000014E7160F0BD0000000001400146886857
:1004600080B27047416170470161704700BFFEE78D
:1004700010B50024D32000F07DFA00F041FA00F01E
:100480003FFA00F03DFA04464FF6FF7000EA0424FC
:1004900000F036FA0443204610BD00E0401E00285C
:1004A000FCD170472DE9F0470746884614461D46A3
:1004B000DDF820902B4622464146384600F0A7FA48
:1004C0002C2000F057FA002603E0484600F074FAAA
:1004D000761C04FB05F0B042F7D8BDE8F0870000B9
:1004E00008B50121084600F0C7FA01211E48FFF7B0
:1004F0006DFF0121382000F0BFFA0420ADF80000A4
:1005000010208DF8030003208DF80200694617487B
:10051000FFF7D1FE1020ADF8000069461448FFF740
:10052000CAFE2020ADF8000069461148FFF7C3FE5F
:100530004020ADF8000069460D48FFF7BCFE802062
:10054000ADF8000069460A48FFF7B5FE4FF6FF70A8
:10055000ADF8000069460748FFF7ADFE04210348E7
:10056000FFF780FF08BD00000002300000140140CA
:1005700000100140000C014070B50446072C00DD5E
:1005800070BD2F480470204604EBD0714910A4EBD5
:10059000410139B9F0202B4908804FF4A0702A4955
:1005A000088006E04FF4A07026490880F020264914
:1005B0000880362000F0DEF9082141EA441000F0FE
:1005C000FBF92A2000F0D6F9002000F0F5F9002010
:1005D00000F0F2F91B490988491EC1F3072000F019
:1005E000EBF918490978491EC8B200F0E5F92B204B
:1005F00000F0C0F9002000F0DFF9002000F0DCF985
:1006000011490988491EC1F3072000F0D5F90E49A8
:100610000978491EC8B200F0CFF92C2000F0AAF9E1
:10062000002504E00948008800F0C6F96D1C054863
:100630000088054909884843A842F3D800BF9FE7CE
:100640001800002014000020160000201A000020CE
:1006500010B54FF6FF70FFF720FFCF2000F08AF9AA
:10066000002000F0A9F9812000F0A6F9302000F068
:10067000A3F94FF6FF70FFF710FFED2000F07AF9B5
:10068000642000F099F9032000F096F9122000F0A0
:1006900093F9812000F090F94FF6FF70FFF7FDFE0F
:1006A000E82000F067F9852000F086F9102000F0BE
:1006B00083F9782000F080F94FF6FF70FFF7EDFE28
:1006C000CB2000F057F9392000F076F92C2000F00B
:1006D00073F9002000F070F9342000F06DF9062065
:1006E00000F06AF94FF6FF70FFF7D7FEF72000F031
:1006F00041F9202000F060F94FF6FF70FFF7CDFEC2
:10070000EA2000F037F9002000F056F9002000F050
:1007100053F94FF6FF70FFF7C0FEB12000F02AF941
:10072000002000F049F91B2000F046F94FF6FF7059
:10073000FFF7B3FEB62000F01DF90A2000F03CF9E7
:10074000A22000F039F94FF6FF70FFF7A6FEC02097
:1007500000F010F9352000F02FF94FF6FF70FFF789
:100760009CFEC12000F006F9112000F025F9C520FB
:1007700000F000F9452000F01FF9452000F01CF9B9
:10078000C72000F0F7F8A22000F016F9F22000F0E0
:10079000F1F8002000F010F9262000F0EBF801201D
:1007A00000F00AF94FF6FF70FFF777FEE02000F047
:1007B000E1F80F2000F000F9262000F0FDF82420D9
:1007C00000F0FAF80B2000F0F7F80E2000F0F4F833
:1007D000092000F0F1F8542000F0EEF8A82000F015
:1007E000EBF8462000F0E8F80C2000F0E5F81720C0
:1007F00000F0E2F8092000F0DFF80F2000F0DCF84C
:10080000072000F0D9F8002000F0D6F8E12000F031
:10081000B1F8002000F0D0F8192000F0CDF81B202E
:1008200000F0CAF8042000F0C7F8102000F0C4F867
:10083000072000F0C1F82A2000F0BEF8472000F0A1
:10084000BBF8392000F0B8F8032000F0B5F8062016
:1008500000F0B2F8062000F0AFF8302000F0ACF85D
:10086000382000F0A9F80F2000F0A6F84FF6FF702E
:10087000FFF713FE362000F07DF8C82000F09CF84A
:100880004FF6FF70FFF709FE2A2000F073F80020F2
:1008900000F092F8002000F08FF8002000F08CF8B3
:1008A000EF2000F089F84FF6FF70FFF7F6FD2B20E0
:1008B00000F060F8002000F07FF8002000F07CF8E5
:1008C000012000F079F83F2000F076F84FF6FF7035
:1008D000FFF7E3FD3A2000F04DF8552000F06CF8EA
:1008E000112000F047F80548FFF7D7FD4FF6FF70DD
:1008F000FFF7D3FD292000F03DF810BDFCBF02003A
:1009000038B54FF6FF70ADF8000048208DF80300B1
:1009100069461648FFF7CFFC10211548FFF7A2FDE6
:1009200080211348FFF7A0FD40211148FFF79CFDEF
:1009300020210F48FFF796FD0C48FFF78FFD044676
:1009400020210B48FFF790FD10210948FFF78CFD8F
:100950004FF6FF70ADF8000010208DF803006946D7
:100960000248FFF7A8FC204638BD0000000C0140FB
:100970000010014010B5044610210D48FFF772FD2C
:1009800080210B48FFF76EFD20210948FFF76CFD21
:100990000848046040210648FFF764FD40210448F0
:1009A000FFF762FD10210248FFF75EFD10BD000059
:1009B000001001400C0C014010B5044610210D48F8
:1009C000FFF750FD80210B48FFF74EFD202109481D
:1009D000FFF74AFD0848046040210648FFF742FD42
:1009E00040210448FFF740FD10210248FFF73CFD7D
:1009F00010BD0000001001400C0C014010B5FFF7C5
:100A00006FFDFFF725FE0620FFF7B6FD10BD2DE9AF
:100A1000F04104460D4616461F462A20FFF7AAFF5E
:100A2000200AFFF7C9FFE0B2FFF7C6FFA119491E70
:100A3000C1F30720FFF7C0FFA119491EC8B2FFF795
:100A4000BBFF2B20FFF796FF280AFFF7B5FFE8B2A0
:100A5000FFF7B2FFE919491EC1F30720FFF7ACFF0A
:100A6000E919491EC8B2FFF7A7FFBDE8F08100BF32
:100A7000FEE770477047000029B1064A92690243B9
:100A8000044B9A6104E0034A92698243014B9A61E4
:100A9000704700000010024030B500210022002401
:100AA00000232D4D6D6805F00C0121B1042905D0FE
:100AB000082923D105E0294D056022E0274D056076
:100AC0001FE0254D6D6805F47012234D6D6805F427
:100AD0008034022505EB92421CB9214D5543056037
:100AE0000BE01D4D6D6805F400351DB11C4D5543DF
:100AF000056002E0194D5543056002E0174D0560A1
:100B000000BF00BF144D6D6805F0F0010909154DD7
:100B10006B5C0568DD4045600F4D6D6805F4E06174
:100B2000090A104D6B5C4568DD4085600A4D6D68B3
:100B300005F46051C90A0B4D6B5C4568DD40C5602A
:100B4000054D6D6805F44041890B074D6B5CC56828
:100B5000B5FBF3F5056130BD0010024000127A00CC
:100B600000093D000000002010000020704710B573
:100B700000F002F810BD00000CB5002001900090BC
:100B80003348006840F480303149086000BF304885
:100B9000006800F4003000900198401C019000981B
:100BA00018B90198B0F5A06FF1D12948006800F498
:100BB000003010B10120009001E00020009000986A
:100BC000012843D12348006840F010002149086003
:100BD0000846006820F0030008600846006840F0FE
:100BE000020008601A484068194948600846406891
:100BF00048600846406840F48060486008464068A5
:100C000020F47C1048600846406840F4E8104860D2
:100C10000846006840F08070086000BF0C4800681B
:100C200000F000700028F9D00948406820F0030067
:100C3000074948600846406840F00200486000BF2D
:100C40000348406800F00C000828F9D10CBD0000F2
:100C500000100240002002407047000010B5134809
:100C6000006840F0010011490860084640681049DA
:100C700008400E494860084600680E4908400B4984
:100C800008600846006820F4802008600846406834
:100C900020F4FE0048604FF41F008860FFF767FFF4
:100CA0004FF000600449086010BD000000100240D1
:100CB0000000FFF8FFFFF6FE08ED00E021B1828999
:100CC00042F40052828104E082894DF6FF731A409B
:100CD0008281704702460020B1F5007F00D100BF3D
:100CE00013880B400BB1012000E00020704700008A
:100CF0002DE9F04786B005460E460024A24600BF07
:100D0000A1460027B08900B100BF2F462C8A4CF6BF
:100D1000FF700440F08804432C82AC894EF6F31037
:100D20000440B08831890843718908430443AC8189
:100D3000AC8A4FF6FF400440B0890443AC8201A85E
:100D4000FFF7AAFE1F48874202D1DDF810A001E09C
:100D5000DDF80CA0A88900F4004040B10AEBCA00FD
:100D600000EB0A1031684900B0FBF1F807E00AEB2C
:100D7000CA0000EB0A1031688900B0FBF1F864206A
:100D8000B8FBF0F004012009642101FB1089A88957
:100D900000F4004040B1322000EBC900B0FBF1F09C
:100DA00000F00700044308E0322000EB0910642142
:100DB000B0FBF1F000F00F0004432C8106B0BDE859
:100DC000F087000000380140C1F3080282807047BC
:100DD00000BFFEE70FB4054B10B503A9044A029803
:100DE00000F018F810BC5DF814FB0000D5100008E6
:100DF0001C00002002E008C8121F08C1002AFAD116
:100E000070477047002001E001C1121F002AFBD18A
:100E1000704700002DE9FF4F8DB09B460F460446FA
:100E2000002606E025280BD05A460F999047641CEF
:100E3000761C20780028F5D111B03046BDE8F08F3F
:100E40000025A8460122984900E0054314F8013F17
:100E5000203B02FA03F00842F7D120782E2817D160
:100E600014F8010F45F004052A280ED06FF02F0268
:100E70002078A0F1300109290AD808EB880102EB9B
:100E8000410100EB0108641CF2E757F8048B641C75
:100E900020786C280DD004DC4C2812D06A2811D19F
:100EA00004E074280DD07A280CD10AE045F400152E
:100EB00007E0617845F48015814202D1641C05F594
:100EC0008015641C2278692A45D008DC002AB3D03A
:100ED000582A69D0632A10D0642A08D13BE0702ACE
:100EE00067D0732A13D0752A5CD0782A5CD010465C
:100EF0005A460F999047761CD3E017F8040B8DF8EB
:100F0000000000208DF80100E946012003E057F8B9
:100F1000049B4FF0FF3069074FF0000501D40AE051
:100F20006D1C45450DDA8542FADB19F805100029DC
:100F3000F6D106E06D1C8542FCDB19F8051000298E
:100F4000F8D12E4404E019F8010B5A460F99904746
:100F50006D1EF8D2A5E00A200021CDE90801C5F3F5
:100F6000025002280DD001CFC117031E71F10003FA
:100F70000DDA4FF0000CD0EB0C006CEB01012D23CF
:100F800008E0FF1D27F00707F7E80201EDE72B0552
:100F900004D52B238DF8283001233BE0EB0739D013
:100FA0002023F7E70A2000E010200021CDE9080106
:100FB00007E01020002145F00405CDE908014FF0BD
:100FC0000808C5F3025002280FD001CF00214FF0CE
:100FD000000A2B071FD5702A0DD0DDE908C38CF05D
:100FE000100C5CEA030C0CD015E0FF1D27F007077E
:100FF000F7E80201EBE740228DF828204FF0010AC4
:101000000BE050EA010306D030238DF828308DF82C
:10101000292002239A46582A04D024A20DF120093F
:101020000B9209E026A2F9E7DDE90823FFF79CF817
:101030000B9B9B5C09F8013D50EA0102F4D1ADEB3A
:10104000090020300890680701D44FF00108089982
:10105000884502DDA8EB010000E000208046002565
:1010600006E00AA85A46405D0F9990476D1C761C11
:101070005545F6DB04E030205A460F999047761C20
:10108000B8F10001A8F10108F5DC05E019F8010B41
:101090005A460F999047761C0899481E08900029D7
:1010A000F4DC641CC5E6000009280100303132334D
:1010B0003435363738396162636465660000000094
:1010C000303132333435363738394142434445467E
:1010D0000000000070B504460D46E1B20548FFF778
:1010E00073FE00BF80210348FFF7F4FD0028F9D00C
:1010F000204670BD0038014008B5FFF79BF818A0E6
:10110000FFF768FEFFF77AFCFFF7B2F904462146C5
:1011100019A0FFF75FFE4FF6FF7064231A46002107
:1011200000900846FFF7BEF94FF4784064231A4652
:10113000194600900020FFF7B5F91F2064231A46D6
:10114000194600901846FFF7ADF94FF6E07064239A
:101150001A46C82100901846FFF7A4F900BFFEE721
:101160000D0A4C434420D2BABEA7CFD4CABECAB5DA
:10117000D1E90D0A00000000B6C1C8A1B5BDB5C4D3
:101180004944203D2025780D0A000000AC110008DC
:101190000000002020000000F40D0008CC11000821
:1011A0002000002000040000040E000800000000E1
:1011B00001020304010203040607080902040608E9
:0C11C000F00040010600000000000000EC
:0400000508000131BD
:00000001FF
