:020000040800F2
:100000002004002045010008350400082D040008E4
:1000100031040008770200085F0C000800000000AF
:10002000000000000000000000000000350900088A
:100030000D03000800000000E10400085D01000855
:100040005F0100085F0100085F0100085F01000810
:100050005F0100085F0100085F0100085F01000800
:100060005F0100085F0100085F0100085F010008F0
:100070005F0100085F0100085F0100085F010008E0
:100080005F0100085F0100085F0100085F010008D0
:100090005F0100085F0100085F0100085F010008C0
:1000A0005F0100085F0100085F0100085F010008B0
:1000B0005F0100085F0100085F0100085F010008A0
:1000C0005F0100085F0100085F0100085F01000890
:1000D0005F010008810A00085F0100085F01000855
:1000E0005F0100085F0100085F0100085F01000870
:1000F0005F0100085F0100085F0100085F01000860
:100100005F0100085F0100085F0100085F0100084F
:100110005F0100085F0100085F0100085F0100083F
:100120005F0100085F0100085F0100085F0100082F
:10013000DFF80CD000F06EF800480047890F000887
:10014000200400200648804706480047FEE7FEE7F7
:10015000FEE7FEE7FEE7FEE7FEE7FEE7FEE7FEE777
:10016000210A00083101000840EA01039B0703D07F
:1001700009E008C9121F08C0042AFAD203E011F8E6
:10018000013B00F8013B521EF9D27047D2B201E0A8
:1001900000F8012B491EFBD270470022F6E710B58C
:1001A00013460A4604461946FFF7F0FF204610BDE5
:1001B0002DE9F05F0546002092469B46884606469C
:1001C000814640241BE0284641464746224600F02F
:1001D00042F853465A46C01A914110D31146184668
:1001E000224600F029F82D1A67EB01084F462246F7
:1001F0000120002100F020F817EB00094E41201EDD
:10020000A4F10104DFDC484631462A464346BDE8F6
:10021000F09F0000064C074D06E0E06840F0010347
:1002200094E8070098471034AC42F6D3FFF784FFF8
:10023000CC100008EC100008202A04DB203A00FA59
:1002400002F1002070479140C2F1200320FA03F32D
:10025000194390407047202A04DB203A21FA02F02B
:100260000021704721FA02F3D040C2F120029140F0
:1002700008431946704700BFFEE7000000B585B08F
:100280000121042000F02EF94FF40070ADF81000A9
:1002900018208DF8130003208DF8120004A91948C6
:1002A00000F035F84FF48060ADF8100004208DF8B0
:1002B000130004A9134800F02AF80121880300F074
:1002C00011F94FF4E13000900020ADF80400ADF8D2
:1002D0000600ADF80800ADF80C000C20ADF80A00DF
:1002E0006946094800F046FC00F0A5F8012240F2FA
:1002F0002551054800F019FC0121034800F0D2FB0C
:1003000005B000BD000801400038014070472DE9EC
:10031000F04102460025002600200023002400278B
:1003200091F803C00CF00F0591F803C00CF0100C0D
:10033000BCF1000F03D091F802C04CEA050591F81A
:1003400000C0BCF1000F31D0146800202BE04FF04A
:10035000010C0CFA00F3B1F800C00CEA03069E424F
:1003600020D183004FF00F0C0CFA03F7BC4305FAC1
:1003700003FC4CEA040491F803C0BCF1280F06D139
:100380004FF0010C0CFA00FCC2F814C00AE091F81E
:1003900003C0BCF1480F05D14FF0010C0CFA00FC72
:1003A000C2F810C0401C0828D1D31460B1F800C0B6
:1003B000BCF1FF0F34DD546800202EE000F1080C82
:1003C0004FF0010808FA0CF3B1F800C00CEA03067C
:1003D0009E4221D183004FF00F0C0CFA03F7BC436F
:1003E00005FA03FC4CEA040491F803C0BCF1280FA1
:1003F00005D100F1080C08FA0CF8C2F8148091F845
:1004000003C0BCF1480F07D100F1080C4FF0010800
:1004100008FA0CF8C2F81080401C0828CED35460AB
:10042000BDE8F081416170470161704700BFFEE7A0
:1004300000BFFEE7704708B54FF4A06000F046F833
:1004400025208DF8000001208DF801008DF80200B4
:100450008DF80300684600F001F808BD70B5002172
:1004600000230F22C47804B3154C246804F4E0641C
:10047000C4F5E064210AC1F10403CA40447804FAD7
:1004800003F184781440214309010E4C0678A155EC
:10049000047804F01F050124AC4005786D11AD000F
:1004A00005F1E025C5F8004109E0047804F01F05D6
:1004B0000124AC40044D0678761145F8264070BD05
:1004C0000CED00E000E400E080E100E002490143BF
:1004D000024A1160704700000000FA050CED00E0D0
:1004E0007047000029B1064A92690243044B9A61A1
:1004F00004E0034A92698243014B9A61704700000D
:100500000010024030B500210022002400232D4DB0
:100510006D6805F00C0121B1042905D0082923D10B
:1005200005E0294D056022E0274D05601FE0254DBF
:100530006D6805F47012234D6D6805F48034022552
:1005400005EB92421CB9214D554305600BE01D4D52
:100550006D6805F400351DB11C4D5543056002E082
:10056000194D5543056002E0174D056000BF00BFFF
:10057000144D6D6805F0F0010909154D6B5C0568B7
:10058000DD4045600F4D6D6805F4E061090A104DCE
:100590006B5C4568DD4085600A4D6D6805F460510F
:1005A000C90A0B4D6B5C4568DD40C560054D6D6843
:1005B00005F44041890B074D6B5CC568B5FBF3F54D
:1005C000056130BD0010024000127A0000093D00B4
:1005D000000000201000002021B1028842F04002FB
:1005E000028004E002884FF6BF731A400280704711
:1005F00010B5044600F0DCF800F0F2F810210C48C9
:10060000FFF710FF202000F097F8C4F3074000F038
:1006100093F8C4F3072000F08FF8E0B200F08CF8F4
:1006200010210348FFF700FF00F0C2F810BD0000E2
:10063000000801402DE9F04104460D46174600260A
:1006400024E00EB1E0B2D8B910211548FFF7ECFE56
:1006500000F0AEF800F0ACF800F0C2F8102110483D
:10066000FFF7E0FE022000F067F8C4F3074000F057
:1006700063F8C4F3072000F05FF8E0B200F05CF824
:10068000287800F059F86D1C641C761CBE42D8D343
:1006900010210348FFF7C8FE00F08AF8BDE8F0819A
:1006A000000801402DE9F04104460D461646102190
:1006B0000F48FFF7B7FE032000F03EF8C4F30740F1
:1006C00000F03AF8C4F3072000F036F8E0B200F08A
:1006D00033F8002704E000F029F828706D1C7F1C17
:1006E000B742F8D310210248FFF79EFEBDE8F08123
:1006F0000008014010B510210B48FFF793FE9F2022
:1007000000F01AF800F012F80446240200F00EF887
:100710000443240200F00AF8044310210248FFF7C2
:1007200083FE204610BD00000008014010B5FF20E8
:1007300000F002F810BD000070B5044642F21070DF
:10074000194908600AE0184801680068401E164A06
:10075000106019B9012000F0D5F870BD02211348CE
:1007600000F0A4F80028EED02146104800F0AAF8C6
:1007700042F210700C4908600AE00B4801680068FA
:10078000401E094A106019B9022000F0BBF8E4E7E6
:100790000121064800F08AF80028EED0034800F056
:1007A0008EF8C5B22846D8E714000020003001407A
:1007B00010B510210948FFF735FE0520FFF7BCFFF3
:1007C00000BFFFF7B3FF044604F001000028F8D192
:1007D00010210248FFF728FE10BD0000000801406C
:1007E00010B510210548FFF71DFE0620FFF7A4FFF6
:1007F00010210248FFF718FE10BD0000000801405C
:1008000000B587B001210420FFF76CFE2020ADF871
:10081000180018208DF81B0003208DF81A0006A977
:100820002048FFF774FD8020ADF8180006A91D4888
:10083000FFF76DFD4020ADF8180048208DF81B0033
:1008400006A91848FFF763FD1020ADF818008DF8D1
:100850001B0006A91348FFF75AFD01210803FFF703
:1008600041FE0020ADF81000ADF80C00ADF80A0014
:10087000ADF81400ADF80800ADF80400ADF81200B2
:100880004FF48270ADF806004FF40070ADF80E0022
:1008900001A9054800F018F801210348FFF79CFE64
:1008A00007B000BD000801400030014002460020B2
:1008B00013890B400BB1012000E000207047014676
:1008C000888970478181704710B50022028802F440
:1008D00041520B884C8823438C882343CC88234384
:1008E0000C8923434C8923438C892343CC8923439C
:1008F0001A430280838B4FF2FF74234083830B8A59
:10090000038210BD10B50446214602A000F0AAF9EA
:10091000002010BD53504920BCECB2E2B3ACCAB1C8
:10092000A3ACB4EDCEF3B4FAC2EBA3BA25640D0ABE
:1009300000000000704710B500F002F810BD000084
:100940000CB50020019000903348006840F48030DE
:100950003149086000BF3048006800F40030009062
:100960000198401C0190009818B90198B0F5A06F4B
:10097000F1D12948006800F4003010B10120009046
:1009800001E0002000900098012843D1234800682E
:1009900040F01000214908600846006820F003007C
:1009A00008600846006840F0020008601A48406885
:1009B000194948600846406848600846406840F465
:1009C000806048600846406820F47C104860084613
:1009D000406840F4E81048600846006840F08070C5
:1009E000086000BF0C48006800F000700028F9D0D3
:1009F0000948406820F003000749486008464068FD
:100A000040F00200486000BF0348406800F00C005E
:100A10000828F9D10CBD000000100240002002405F
:100A200010B51348006840F00100114908600846FD
:100A30004068104908400E494860084600680E4961
:100A400008400B4908600846006820F480200860D0
:100A50000846406820F4FE0048604FF41F0088609C
:100A6000FFF769FF4FF000600449086010BD000007
:100A7000001002400000FFF8FFFFF6FE08ED00E066
:100A800010B540F22551064800F025F838B1044869
:100A900000F0DCF8C4B22146014800F0DCF810BDDB
:100AA0000038014021B1828942F40052828104E081
:100AB00082894DF6FF731A408281704702460020FA
:100AC000B1F5007F00D100BF13880B400BB10120AE
:100AD00000E00020704770B5024600240023002586
:100AE000002040F66A16B14200D100BFC1F34215A2
:100AF00001F01F03012606FA03F3012D02D19689A6
:100B0000334006E0022D02D1168A334001E0968A76
:100B100033400C12012606FA04F41688344013B14F
:100B20000CB1012000E0002070BDF0B503460024A8
:100B300000260025002040F66A17B94200D100BF08
:100B40001846C1F3421401F01F06012707FA06F503
:100B5000012C01D10C3004E0022C01D1103000E056
:100B600014301AB107682F43076002E00768AF43EB
:100B70000760F0BD2DE9F04786B005460E4600241B
:100B8000A24600BFA1460027B08900B100BF2F4692
:100B90002C8A4CF6FF700440F08804432C82AC8908
:100BA0004EF6F3100440B088318908437189084338
:100BB0000443AC81AC8A4FF6FF400440B089044343
:100BC000AC8201A8FFF79EFC1F48874202D1DDF8E6
:100BD00010A001E0DDF80CA0A88900F4004040B1AD
:100BE0000AEBCA0000EB0A1031684900B0FBF1F8CB
:100BF00007E00AEBCA0000EB0A1031688900B0FB7D
:100C0000F1F86420B8FBF0F004012009642101FB35
:100C10001089A88900F4004040B1322000EBC900DF
:100C2000B0FBF1F000F00700044308E0322000EBD5
:100C300009106421B0FBF1F000F00F0004432C8197
:100C400006B0BDE8F0870000003801400146888802
:100C5000C0F308007047C1F308028280704700BFEC
:100C6000FEE700000FB4054B10B503A9044A029833
:100C700000F018F810BC5DF814FB0000650F0008C8
:100C80001800002002E008C8121F08C1002AFAD18B
:100C900070477047002001E001C1121F002AFBD1FC
:100CA000704700002DE9FF4F8DB09B460F4604466C
:100CB000002606E025280BD05A460F999047641C61
:100CC000761C20780028F5D111B03046BDE8F08FB1
:100CD0000025A8460122984900E0054314F8013F89
:100CE000203B02FA03F00842F7D120782E2817D1D2
:100CF00014F8010F45F004052A280ED06FF02F02DA
:100D00002078A0F1300109290AD808EB880102EB0C
:100D1000410100EB0108641CF2E757F8048B641CE6
:100D200020786C280DD004DC4C2812D06A2811D110
:100D300004E074280DD07A280CD10AE045F400159F
:100D400007E0617845F48015814202D1641C05F505
:100D50008015641C2278692A45D008DC002AB3D0AB
:100D6000582A69D0632A10D0642A08D13BE0702A3F
:100D700067D0732A13D0752A5CD0782A5CD01046CD
:100D80005A460F999047761CD3E017F8040B8DF85C
:100D9000000000208DF80100E946012003E057F82B
:100DA000049B4FF0FF3069074FF0000501D40AE0C3
:100DB0006D1C45450DDA8542FADB19F8051000294E
:100DC000F6D106E06D1C8542FCDB19F80510002900
:100DD000F8D12E4404E019F8010B5A460F999047B8
:100DE0006D1EF8D2A5E00A200021CDE90801C5F367
:100DF000025002280DD001CFC117031E71F100036C
:100E00000DDA4FF0000CD0EB0C006CEB01012D2340
:100E100008E0FF1D27F00707F7E80201EDE72B05C3
:100E200004D52B238DF8283001233BE0EB0739D084
:100E30002023F7E70A2000E010200021CDE9080177
:100E400007E01020002145F00405CDE908014FF02E
:100E50000808C5F3025002280FD001CF00214FF03F
:100E6000000A2B071FD5702A0DD0DDE908C38CF0CE
:100E7000100C5CEA030C0CD015E0FF1D27F00707EF
:100E8000F7E80201EBE740228DF828204FF0010A35
:100E90000BE050EA010306D030238DF828308DF89E
:100EA000292002239A46582A04D024A20DF12009B1
:100EB0000B9209E026A2F9E7DDE90823FFF778F9AC
:100EC0000B9B9B5C09F8013D50EA0102F4D1ADEBAC
:100ED000090020300890680701D44FF001080899F4
:100EE000884502DDA8EB010000E0002080460025D7
:100EF00006E00AA85A46405D0F9990476D1C761C83
:100F00005545F6DB04E030205A460F999047761C91
:100F1000B8F10001A8F10108F5DC05E019F8010BB2
:100F20005A460F999047761C0899481E0890002948
:100F3000F4DC641CC5E600000928010030313233BE
:100F40003435363738396162636465660000000005
:100F500030313233343536373839414243444546EF
:100F60000000000070B504460D46E1B20548FFF7E9
:100F700072FE00BF80210348FFF7A0FD0028F9D0D2
:100F8000204670BD00380140B2B06422194919A84A
:100F9000FFF7EAF864216846FFF7FFF80024FFF73F
:100FA0006DF9FFF72DFC14A0FFF75CFEFFF7A2FB25
:100FB0000446214616A0FFF755FE0020FFF718FB58
:100FC00018A0FFF74FFE642219A90020FFF732FB9B
:100FD00018A0FFF747FE642269460020FFF762FB76
:100FE00018A0FFF73FFE69461BA0FFF73BFE00BFBE
:100FF000FEE70000681000080D0ABBB6D3ADCAB901
:10100000D3C3D2B0BBF0BFAAB7A2B0E50D0A0000AF
:101010000D0A726561645F6964203D2025780D0AC0
:10102000000000000D0AB2C1B3FDCDEAB1CF0D0A38
:10103000000000000D0AD0B4C8EBCDEAB1CF0D0A14
:10104000000000000D0AB6C1C8A1B5BDB5C4CAFDF7
:10105000BEDD3A0D0A000000726561645F74656D63
:1010600070203D2025730000C4E3BAC3CAC0BDE7A9
:101070000000000000000000000000000000000070
:101080000000000000000000000000000000000060
:101090000000000000000000000000000000000050
:1010A0000000000000000000000000000000000040
:1010B0000000000000000000000000000000000030
:1010C000000000000000000000000000EC1000081C
:1010D000000000201C000000840C0008081100081B
:1010E0001C00002004040000940C00080000000014
:1010F00001020304010203040607080902040608AA
:081100001027000000000000B0
:0400000508000131BD
:00000001FF
