:020000040800F2
:100000001804002045010008870300087F0300084A
:1000100083030008B9010008570800080000000029
:100020000000000000000000000000002D05000896
:100030004D02000800000000350400085D010008C2
:100040005F0100085F0100085F0100085F01000810
:100050005F0100085F0100085F0100085F01000800
:100060005F0100085F0100085F0100085F010008F0
:100070005F0100085F0100085F0100085F010008E0
:100080005F0100085F0100085F0100085F010008D0
:100090005F0100085F0100085F0100085F010008C0
:1000A0005F0100085F0100085F0100085F010008B0
:1000B0005F0100085F0100085F0100085F010008A0
:1000C0005F0100085F0100085F0100085F01000890
:1000D0005F010008790600085F0100085F01000861
:1000E0005F0100085F0100085F0100085F01000870
:1000F0005F0100085F0100085F0100085F01000860
:100100005F0100085F0100085F0100085F0100084F
:100110005F0100085F0100085F0100085F0100083F
:100120005F0100085F0100085F0100085F0100082F
:10013000DFF80CD000F02EF800480047110D000841
:10014000180400200648804706480047FEE7FEE7FF
:10015000FEE7FEE7FEE7FEE7FEE7FEE7FEE7FEE777
:10016000190600083101000830B50B460146002091
:100170002022012409E021FA02F59D4205D303FA69
:1001800002F5491B04FA02F52844151EA2F10102EA
:10019000F1DC30BD064C074D06E0E06840F001039D
:1001A00094E8070098471034AC42F6D3FFF7C4FF39
:1001B000040E0008240E000800BFFEE700B585B05D
:1001C0000121042000F038F94FF40070ADF8100060
:1001D00018208DF8130003208DF8120004A9194887
:1001E00000F035F84FF48060ADF8100004208DF871
:1001F000130004A9134800F02AF80121880300F035
:100200001BF94FF4E13000900020ADF80400ADF888
:100210000600ADF80800ADF80C000C20ADF80A009F
:100220006946094800F0A2FA00F0AEF8012240F257
:100230002551054800F075FA0121034800F02EFA17
:1002400005B000BD000801400038014070472DE9AD
:10025000F04102460025002600200023002400274C
:1002600091F803C00CF00F0591F803C00CF0100CCE
:10027000BCF1000F03D091F802C04CEA050591F8DB
:1002800000C0BCF1000F31D0146800202BE04FF00B
:10029000010C0CFA00F3B1F800C00CEA03069E4210
:1002A00020D183004FF00F0C0CFA03F7BC4305FA82
:1002B00003FC4CEA040491F803C0BCF1280F06D1FA
:1002C0004FF0010C0CFA00FCC2F814C00AE091F8DF
:1002D00003C0BCF1480F05D14FF0010C0CFA00FC33
:1002E000C2F810C0401C0828D1D31460B1F800C077
:1002F000BCF1FF0F34DD546800202EE000F1080C43
:100300004FF0010808FA0CF3B1F800C00CEA03063C
:100310009E4221D183004FF00F0C0CFA03F7BC432F
:1003200005FA03FC4CEA040491F803C0BCF1280F61
:1003300005D100F1080C08FA0CF8C2F8148091F805
:1003400003C0BCF1480F07D100F1080C4FF00108C1
:1003500008FA0CF8C2F81080401C0828CED354606C
:10036000BDE8F0810246002093680B400BB10120EC
:1003700000E000207047416170470161704700BF95
:10038000FEE700BFFEE7704708B54FF4A06000F03D
:1003900047F825208DF8000001208DF801008DF828
:1003A00002008DF80300684600F002F808BD000066
:1003B00070B5002100230F22C47804B3154C2468C3
:1003C00004F4E064C4F5E064210AC1F10403CA4006
:1003D000447804FA03F184781440214309010E4C57
:1003E0000678A155047804F01F050124AC40057877
:1003F0006D11AD0005F1E025C5F8004109E0047874
:1004000004F01F050124AC40044D0678761145F830
:10041000264070BD0CED00E000E400E080E100E06B
:1004200002490143024A1160704700000000FA05CA
:100430000CED00E07047000029B1064A92690243C2
:10044000044B9A6104E0034A92698243014B9A612A
:10045000704700000010024030B500210022002447
:1004600000232D4D6D6805F00C0121B1042905D044
:10047000082923D105E0294D056022E0274D0560BC
:100480001FE0254D6D6805F47012234D6D6805F46D
:100490008034022505EB92421CB9214D554305607D
:1004A0000BE01D4D6D6805F400351DB11C4D554325
:1004B000056002E0194D5543056002E0174D0560E7
:1004C00000BF00BF144D6D6805F0F0010909154D1E
:1004D0006B5C0568DD4045600F4D6D6805F4E061BB
:1004E000090A104D6B5C4568DD4085600A4D6D68FA
:1004F00005F46051C90A0B4D6B5C4568DD40C56071
:10050000054D6D6805F44041890B074D6B5CC5686E
:10051000B5FBF3F5056130BD0010024000127A0012
:1005200000093D000000002010000020704710B5B9
:1005300000F002F810BD00000CB500200190009002
:100540003348006840F480303149086000BF3048CB
:10055000006800F4003000900198401C0190009861
:1005600018B90198B0F5A06FF1D12948006800F4DE
:10057000003010B10120009001E0002000900098B0
:10058000012843D12348006840F010002149086049
:100590000846006820F0030008600846006840F044
:1005A000020008601A4840681949486008464068D7
:1005B00048600846406840F48060486008464068EB
:1005C00020F47C1048600846406840F4E810486019
:1005D0000846006840F08070086000BF0C48006862
:1005E00000F000700028F9D00948406820F00300AE
:1005F000074948600846406840F00200486000BF74
:100600000348406800F00C000828F9D10CBD000038
:10061000001002400020024010B51348006840F06E
:1006200001001149086008464068104908400E4919
:100630004860084600680E4908400B4908600846B3
:10064000006820F4802008600846406820F4FE001E
:1006500048604FF41F008860FFF769FF4FF00060AB
:100660000449086010BD0000001002400000FFF8BF
:10067000FFFFF6FE08ED00E010B540F225510648F8
:1006800000F025F838B1044800F0DCF8C4B2214687
:10069000014800F0DCF810BD0038014021B182892A
:1006A00042F40052828104E082894DF6FF731A40C1
:1006B0008281704702460020B1F5007F00D100BF63
:1006C00013880B400BB1012000E00020704770B58B
:1006D0000246002400230025002040F66A16B1429D
:1006E00000D100BFC1F3421501F01F03012606FA35
:1006F00003F3012D02D19689334006E0022D02D189
:10070000168A334001E0968A33400C12012606FA1D
:1007100004F41688344013B10CB1012000E000202D
:1007200070BDF0B50346002400260025002040F6E9
:100730006A17B94200D100BF1846C1F3421401F054
:100740001F06012707FA06F5012C01D10C3004E041
:10075000022C01D1103000E014301AB107682F4389
:10076000076002E00768AF430760F0BD2DE9F0477E
:1007700086B005460E460024A24600BFA1460027CB
:10078000B08900B100BF2F462C8A4CF6FF700440A0
:10079000F08804432C82AC894EF6F3100440B088F4
:1007A00031890843718908430443AC81AC8A4FF610
:1007B000FF400440B0890443AC8201A8FFF74CFE1F
:1007C0001F48874202D1DDF810A001E0DDF80CA03F
:1007D000A88900F4004040B10AEBCA0000EB0A10FF
:1007E00031684900B0FBF1F807E00AEBCA0000EB02
:1007F0000A1031688900B0FBF1F86420B8FBF0F012
:1008000004012009642101FB1089A88900F400403B
:1008100040B1322000EBC900B0FBF1F000F007005E
:10082000044308E0322000EB09106421B0FBF1F032
:1008300000F00F0004432C8106B0BDE8F0870000F3
:100840000038014001468888C0F308007047C1F3B2
:1008500008028280704700BFFEE700000FB4054B1E
:1008600010B503A9044A029800F018F810BC5DF80E
:1008700014FB00000D0B00081400002002E008C863
:10088000121F08C1002AFAD170477047002001E00A
:1008900001C1121F002AFBD1704700002DE9FF4F54
:1008A00089B09B460446002506E025280BD05A4611
:1008B0000B999047641C6D1C20780028F5D10DB071
:1008C0002846BDE8F08F0027B8460122474900E0DE
:1008D000074314F8013F203B02FA03F00842F7D126
:1008E00020782E2819D114F8010F47F004072A2880
:1008F0000ED06FF02F022078A0F1300109290CD81A
:1009000008EB880102EB410100EB0108641CF2E7EF
:100910000A98641C50F8048B0A9020780028CED0E6
:10092000642808D0692806D075281ED05A460B992D
:1009300090476D1C58E00A994FF00A0901C90A91C5
:10094000002802DA40422D2102E0390504D52B218E
:100950008DF82010012103E0F90704D02021F7E7EA
:100960008A4608AE0DE00021FAE70A994FF00A091D
:1009700001C90A91F7E74946FFF7F6FB303106F85F
:10098000011D0028F7D1ADEB060000F12009780722
:1009900001D44FF00108C84502DDA8EB090000E0D2
:1009A00000208046002706E008A85A46C05D0B9943
:1009B00090476D1C7F1C5745F6DB04E030205A46FB
:1009C0000B9990476D1CB8F10001A8F10108F5DC06
:1009D00005E016F8010B5A460B9990476D1CB9F1CA
:1009E0000001A9F10109F4DC641C65E70928010094
:1009F00070B5054600F014F9284600F05DF900F0E6
:100A00003DF908B1012400E0002400F0D1F800F025
:100A100021F9204670BD2DE9F04107460C461546E8
:100A200000F03BF800B132E000F0FAF8A02000F04E
:100A300043F900F023F900B129E0384600F03CF911
:100A400000F01CF900B122E000F0EAF8A12000F06B
:100A500033F900F013F900B119E000260DE000F0C1
:100A6000BDF82070681EB04202D100F0A1F801E08C
:100A700000F05EF8641C701CC6B2AE42EFDB00BF33
:100A800000F096F800F0E6F80120BDE8F08100F0F3
:100A90008FF800F0DFF80020F7E710B5002407E03A
:100AA000601C84B242F21070844201DB012010BD50
:100AB000A020FFF79DFF0028F2D100BFF7E770B537
:100AC00005460C46FFF7E9FF00B11AE000F0A8F870
:100AD000A02000F0F1F800F0D1F800B111E02846B4
:100AE00000F0EAF800F0CAF800B10AE0204600F091
:100AF000E3F800F0C3F800B103E000F0ABF8012028
:100B000070BD00F0A7F80020FAE7000070B50446B9
:100B10000D46E1B20548FFF79AFE00BF8021034869
:100B2000FFF7C8FD0028F9D0204670BD003801400D
:100B300010B508210B48FFF71EFC00F015F8042142
:100B40000848FFF71AFC00F00FF804210548FFF7EA
:100B500012FC00F009F808210248FFF70EFC00F033
:100B600003F810BD00080140002001E0411CC8B29C
:100B70000A28FBDB7047000008B501211020FFF7B1
:100B80005BFC0420ADF8000014208DF80300032066
:100B90008DF8020069460548FFF759FB0820ADF8BB
:100BA000000069460148FFF752FB08BD00080140FC
:100BB00010B508210848FFF7E0FBFFF7D5FF042137
:100BC0000548FFF7DAFBFFF7CFFF04210248FFF7E4
:100BD000D2FBFFF7C9FF10BD0008014070B500242B
:100BE000002517E06006040E04210C48FFF7C5FB42
:100BF000FFF7BAFF08210948FFF7B4FB012801D12C
:100C0000601CC4B204210548FFF7B5FBFFF7ACFF39
:100C1000681CC5B2082DE5DB204670BD0008014008
:100C200010B508210A48FFF7A8FB04210848FFF780
:100C3000A4FBFFF799FF08210548FFF79CFBFFF78E
:100C400093FF04210248FFF796FBFFF78DFF10BDCD
:100C50000008014010B508210748FFF78CFB04216C
:100C60000548FFF78AFBFFF77FFF08210248FFF7DF
:100C700084FBFFF779FF10BD0008014010B5082183
:100C80000C48FFF77AFB04210A48FFF776FBFFF7D1
:100C90006BFF08210748FFF765FB012801D10124FC
:100CA00000E0002404210348FFF765FBFFF75CFF29
:100CB000204610BD0008014070B50446002521E023
:100CC00004F0800020B108211048FFF756FB03E034
:100CD00008210E48FFF74FFB04210C48FFF74DFB9E
:100CE000FFF742FF04210948FFF745FBFFF73CFFF0
:100CF000072D03D108210548FFF73FFB6006040ECE
:100D0000681CC5B2082DDBDB70BD00000008014087
:100D10000EB50020009001900290FFF74FFAFFF708
:100D20002BFF18A0FFF79AFDA020FFF761FE18B96E
:100D300018A0FFF793FD02E01BA0FFF78FFD0D2128
:100D40000220FFF7BCFE012803D11CA0FFF786FD9F
:100D500002E01EA0FFF782FD022269460120FFF794
:100D60005AFE18B11DA0FFF779FD02E01EA0FFF7A3
:100D700075FD9DF801209DF800101EA0FFF76EFD87
:100D800000BFFEE70D0ABBB6D3ADCAB9D3C30D0A87
:100D9000000000000D0ABCECB2E2B5BD4545505262
:100DA0004F4D0D0A000000000D0ACEB4BCECB2E2BB
:100DB000B5BD454550524F4D0D0A00000D0AD0B447
:100DC000C8EBB3C9B9A60D0A000000000D0AD0B4E3
:100DD000C8EBCAA7B0DC0D0A00000000B6C1C8A16C
:100DE000B3C9B9A60D0A0000B6C1C8A1CAA7B0DC34
:100DF0000D0A000074656D70203D2025642C2025AF
:100E0000640D0A00240E00080000002018000000F5
:100E10007C0800083C0E00081800002000040000B8
:100E20008C08000800000000010203040102030412
:0C0E300006070809020406080000000084
:0400000508000131BD
:00000001FF
